//Hexidecimal format of code so arduino can use it.

:100000000C9434000C943E000C943E000C943E0082
:100010000C943E000C943E000C943E000C943E0068
:100020000C943E000C943E000C943E000C943E0058
:100030000C943E000C943E000C943E000C943E0048
:100040000C943E000C943E000C943E000C943E0038
:100050000C943E000C943E000C943E000C943E0028
:100060000C943E000C943E0011241FBECFEFD8E04C
:10007000DEBFCDBF0E946B000C9473000C94000097
:1000800005971CF02D9A2B9808952D982B9A08957A
:10009000529A54985A985A9A0E945A005A98552738
:1000A0000E94610053954C99FBCF9927852F0E94A0
:1000B0006100089522E030E53A95F1F72A95D9F7E5
:1000C000089524E63AE340E14A95F1F73A95D9F7E5
:1000D0002A95C1F7089584B1886284B90E944800C6
:0A00E0000E944000FBCFF894FFCF10
:00000001FF